:020000040001F9
:10F00000E050002015F201001DF201001FF2010086
:10F0100021F2010023F2010025F2010000000000AE
:10F0200000000000000000000000000027F20100C6
:10F0300029F20100000000002BF201002DF2010076
:10F0400019F601002FF20100B5FC0100A1F8010042
:10F050002FF201002FF2010071F301002FF20100E5
:10F060002FF201002FF201002FF201002FF2010018
:10F070002FF201002FF201002FF201002FF2010008
:10F080002FF20100A1F701002FF201002FF2010081
:10F09000EDF801002FF20100F1F801002FF201005C
:10F0A0002FF201002FF201002FF201002FF20100D8
:10F0B0002FF201002FF2010000000000000000000C
:10F0C0002FF201002FF201002FF201002FF20100B8
:10F0D0002FF201002FF201002FF2010000000000CA
:10F0E0000000000000000000000000000000000020
:10F0F0000000000000000000000000000000000010
:10F1000000000000000000000000000000000000FF
:10F1100000000000000000000000000000000000EF
:10F1200000000000000000000000000000000000DF
:10F1300000000000000000000000000000000000CF
:10F1400000000000000000000000000000000000BF
:10F1500000000000000000000000000000000000AF
:10F16000000000000000000000000000000000009F
:10F17000000000000000000000000000000000008F
:10F18000000000000000000000000000000000007F
:10F19000000000000000000000000000000000006F
:10F1A000000000000000000000000000000000005F
:10F1B000000000000000000000000000000000004F
:10F1C000000000000000000000000000000000003F
:10F1D000000000000000000000000000000000002F
:10F1E000000000000000000000000000000000001F
:10F1F000000000000000000000000000000000000F
:10F20000DFF80CD000F0A2F800480047111D020002
:10F21000E05000200648804706480047FEE7FEE72A
:10F22000FEE7FEE7FEE7FEE7FEE7FEE7FEE7FEE7B6
:10F2300099F9010001F201002DE9F05F0546002077
:10F2400092469B4688460646814640241BE0284657
:10F2500041464746224600F068F853465A46C01ACF
:10F26000914110D311461846224600F04FF82D1A4E
:10F2700067EB01084F4622460120002100F046F8C6
:10F2800017EB00094E41201EA4F10104DFDC4846C3
:10F2900031462A464346BDE8F09F000000487047CB
:10F2A000B842020040EA01039B0703D009E008C905
:10F2B000121F08C0042AFAD203E011F8013B00F83B
:10F2C000013B521EF9D27047D2B201E000F8012B87
:10F2D000491EFBD270470022F6E710B513460A46D6
:10F2E00004461946FFF7F0FF204610BD421C10F8F7
:10F2F000011B0029FBD1801A7047034611F8012B2E
:10F3000000F8012B002AF9D118467047202A04DBA7
:10F31000203A00FA02F1002070479140C2F1200328
:10F3200020FA03F3194390407047202A04DB203A67
:10F3300021FA02F00021704721FA02F3D040C2F115
:10F34000200291400843194670470000064C074DC3
:10F3500006E0E06840F0010394E8070098471034A5
:10F36000AC42F6D3FFF750FF44440200644402006D
:10F370002DE9F04700268CB0DFF86091B0464FF4DD
:10F380008075012437460696284603F003FD38B100
:10F39000D9F80403204203D0284603F0F1FC2643A9
:10F3A0002D1D64007F1CADB2082FEDD34FF4BE7449
:10F3B000204603F0EFFC48B1204603F0E1FC46F0A4
:10F3C000004606AA0121002003F0C6FC444D16F0B9
:10F3D000FF0F15D00127002437420DD009EB84011F
:10F3E000D1F81005D1F81015C0F3042055F82420E9
:10F3F000C1F3014102B190477F00641C082CEBD39C
:10F40000002E67DA4FF0FF30CDE908800026344641
:10F41000281910F8507F90F9000027F0C008401C10
:10F4200044D009A9404602F059FE58B34FEA971953
:10F43000404602F075F955F820701FB1B9F1030F7D
:10F4400003D00FE0B9F1030F30D108A84FEAD8027A
:10F4500008F00703815C4FF0010C0CFA03FC41EA51
:10F460000C0181544FF0A04101EB8800D0F8000757
:10F4700006A9C0F3014A404602F030FE18B1BAF1C5
:10F48000020F03D012E0BAF1030F0FD1B9F1030F4D
:10F4900008D1BAF1020F1BD00221404603F02AFC2A
:10F4A000761CF6B217B149464046B847641C042C96
:10F4B000AED3002E0ED06A460121002003F04CFC92
:10F4C00006990098884205D00690089809909DE713
:10F4D0000321E2E70CB0BDE8F087000000600040C7
:10F4E000E02B002008B500240221102000F012FAC1
:10F4F0001C4800251CA10570032003F0A5FD194E32
:10F500004FF0A0470A3E02E00B2003F004FCD7F8BE
:10F510001005000C10F0010FF6D175701848184B4B
:10F520000122C562056345638563102000902C337A
:10F530000021144803F02CF918B101F0D9F800E0CB
:10F5400020BF70780028FBD00B2003F0EBFB0C48A9
:10F55000641C2C30E4B2C47301461022383801F028
:10F5600067FDD4E7022600204150503A494E464FED
:10F570003A676574646174615F5244415441430069
:10F58000342A00207841020000F01F02012191403E
:10F590004009800000F1E020C0F88012704700F0C0
:10F5A0001F02012191404009800000F1E020C0F8D5
:10F5B0008011704700F01F02012191404009800036
:10F5C00000F1E020C0F80011704700F01F02012197
:10F5D00091404009800000F1E020C0F80011704720
:10F5E00000F01F02012191404009800000F1E0205D
:10F5F000C0F8001270474907090E002806DA00F02B
:10F600000F0000F1E02080F8141D704700F1E020A9
:10F6100080F80014704700002DE9F0414FF4807726
:10F62000384602F025FE0124104EA50748B13846A1
:10F6300002F025FE0120C5F808037470002002F0D6
:10F6400077F84FF48277384602F012FE00280BD08C
:10F65000384602F014FE0220C5F80803B470BDE875
:10F66000F041012002F064B8BDE8F081CC2B00200D
:10F6700010B50C4C204602F00BFE0B4802F008FEC1
:10F680000F2003F048FB012002F002FE0F2003F0E0
:10F6900049FB0A2002F0FCFD2046BDE8104002F0C4
:10F6A000F7BD000040420F00801A0600F8B540F098
:10F6B000200123480024017044700B2003F02BFB31
:10F6C00020A1032003F0C0FC1D4D0A3D6C70274EA5
:10F6D000012706F12C03F46234637463B4630222DD
:10F6E00017492348009703F053F818B101F000F8C8
:10F6F00000E020BF68780028FBD01EA1032003F0A3
:10F70000A3FC6C70F46234637463184BB4632C33E1
:10F71000012200211648009703F03AF818B100F0D2
:10F72000E7FF00E020BF68780028FBD00F2002F040
:10F73000AFFD0B2003F0F6FA0C482C300078F8BD32
:10F74000022600204150503A494E464F3A526561D8
:10F75000642066726F6D204452207265676973740D
:10F760006572206F66204144530D0A00342A002040
:10F77000784102004150503A494E464F3A53656E27
:10F78000642064756D6D792062797465735F666F4E
:10F790007220525245475F4144530D0A0000000059
:10F7A00007480021C0F84011C0F84411C0F84811C2
:10F7B000C0F84C11C0F80011C0F8041104F0BCB935
:10F7C0000010014070B50020FFF770FF0B4CE07097
:10F7D00000F00F000E280FD1002020814CF2503590
:10F7E000012001F0C5FC284602F052FD2089401C92
:10F7F00080B220813228F3D370BD0000F8250020AC
:10F8000010B5142003F08EFA084C204602F040FD9B
:10F81000142003F080FA204602F03AFD142003F091
:10F8200081FA2046BDE8104002F032BDA0860100FA
:10F8300003480078002801D100F088BA7047000022
:10F840006830002070B50E46144900EB400001EB13
:10F85000C0051446E86A183520B101280FD00228E7
:10F8600005D113E0284600F0A5FAA04201D20024F9
:10F8700011E022463146284600F0D4FA0BE0284633
:10F8800000F098FAA042F4D20446F2E73146284646
:10F8900000F09BFA0446204670BD0000683000204E
:10F8A000F8B511480F4D04464FF48C7103F0F7FB87
:10F8B000002815D00026C4F81861D4F8180100906B
:10F8C000A87F2C46FF2801D003F033FA6677267212
:10F8D000D4E9002101B004F10800BDE8F040104770
:10F8E000F8BD0000582C00200030004004F072B831
:10F8F000074810B5406830B18047002807D0BDE800
:10F90000104000F0F5BEBDE8104002F0D1B810BDC7
:10F910009C26002038B504460D460B2003F0FBF969
:10F92000134814A10470032003F08EFB104C002038
:10F93000A41E6070164901F12C03C8620863486375
:10F940008863012002460090A11C124802F020FFAB
:10F9500018B100F0CDFE00E020BF60780028FBD099
:10F96000284602F095FCBDE838400B2003F0DAB9D8
:10F97000FA2500204150503A494E464F3A53656EA1
:10F9800064414453436F6D6D616E640D0A00000065
:10F99000342A002078410200F0B5B5480023021D4A
:10F9A0000178101D01254FF0805406290BD11678DF
:10F9B000360708D10678C6F30316032E06D0042EA8
:10F9C00004D0052E02D0062907D00EE0B4F8246337
:10F9D000A84FC6F304263E6002E01678360704D12D
:10F9E0000678C6F30316032E02D0062904D00FE0D2
:10F9F000A24FA14E7E670EE01678360708D1067832
:10FA0000C6F30316032E06D0042E04D0052E02D012
:10FA1000062907D00EE0D4F84462994FC6F3423667
:10FA20003E6002E01678360704D10678C6F3031666
:10FA3000032E02D0062906D011E0924E376827F037
:10FA4000807737600EE01678360708D10678C6F35F
:10FA50000316032E06D0042E04D0052E02D006294C
:10FA60000AD011E04FF08046C6F80C31C6F81031CC
:10FA7000834E361F336002E01678360704D10678CD
:10FA8000C6F30316032E02D0062905D00CE07C4FE6
:10FA9000032664373E600AE01678360704D10678FC
:10FAA000C6F30316032E02D006290DD014E0764FBC
:10FAB00005263E60744E78363560734E08363360E6
:10FAC0003F263F1D3E6002E01678360704D10678D7
:10FAD000C6F30316052E02D0062957D062E06B4EFE
:10FAE00036686B4F3E60694E361D36683F1D3E607E
:10FAF000664E083636683F1D3E60644E0C363668EA
:10FB00003F1D3E60614E103636683F1D3E605F4EC1
:10FB1000143636683F1D3E605C4E183636685C4FC2
:10FB200020373E60594E1C3636683F1D3E60574EAA
:10FB3000203636683F1D3E60544E243636683F1DE1
:10FB40003E60524E283636683F1D3E604F4E2C3682
:10FB500036683F1D3E604D4E303636684C4F40375C
:10FB60003E604A4E343636683F1D3E60474E38365A
:10FB700036683F1D3E60454E3C3636683F1D3E6050
:10FB8000424E403636683F1D3E6002E0167836072A
:10FB900008D10678C6F30316032E06D0042E04D02F
:10FBA000052E02D0062907D019E0D4F85812394A98
:10FBB00001F04F01116002E0117809070FD10078C0
:10FBC000C0F30310032803D0042801D0052806D170
:10FBD00031480168C90702D06FF001010160D4F813
:10FBE0003001062808D1D4F83401062804D12B4866
:10FBF000016841F48061016022487438016841F471
:10FC000070010160BFF34F8FBFF36F8F4FF0102172
:10FC1000D1F80002002803DBD1F80402002822DA20
:10FC20001F4A15601F480468002CFCD01524C1F839
:10FC300000420568002DFCD0C1F80442016800298B
:10FC4000FCD0136001680029FCD0BFF34F8F0D4832
:10FC5000F0380168144A01F4E06111430160BFF318
:10FC60004F8F00BFFDE7124910480860F0BD00004B
:10FC7000E00F00F0403501400DF0ADBA00C0074084
:10FC80003C050040FCED00E010560040040400106C
:10FC900020C50040E40E0040000400403C17004036
:10FCA00004E5014000E401400400FA050090D0039F
:10FCB000B02600200448017F04480029024901D0F1
:10FCC00004F02BB904F09AB8382C00200020004032
:10FCD00038B540F04002164800240270447081702C
:10FCE0000B2003F018F813A1032003F0ADF9104D19
:10FCF0000A3D6C701348134B0322C46204634463CF
:10FD00008463012000902C3309490F4802F040FD24
:10FD100018B100F0EDFC00E020BF68780028FBD0AF
:10FD20000F2002F0B5FABDE838400B2002F0FABF10
:10FD3000022600204150503A494E464F3A322E306A
:10FD400000000000342A00207841020010B5124C57
:10FD500002202061606111A0A061A4F50470E0613F
:10FD60004FF4007020620020A06260620BA1A164C9
:10FD7000E062A4F11001E16410212165A0656065D5
:10FD8000E06509A1E01DFFF7B8FA08A12046FFF7DA
:10FD9000B4FA2020A07110BD683000205465726D47
:10FDA000696E616C0000000052545400534547478F
:10FDB000455200000269C1688A4203D88068401A2F
:10FDC000104400E0501A401E70472DE9F047C46807
:10FDD0001746894606464FF000083069A04201D90F
:10FDE000051B02E0B168201A0D1AB0686D1E001BD9
:10FDF000A84200D80546BD4200D33D4670682A4659
:10FE000020444946FFF74EFAB0687F1B2C44A844B3
:10FE1000A944A04200D10024F460002FDDD1404667
:10FE2000BDE8F0872DE9F041C668044617468846CC
:10FE30008068851B6068BD4206D93044FFF732FAFE
:10FE4000F019E060BDE8F0812A463044FFF72AFA55
:10FE50007E1B08EB050132466068FFF723FAE66077
:10FE6000F0E700000FB4054B10B503A9044A02984F
:10FE700000F03EF810BC5DF814FB0000B31902005E
:10FE8000942600200FB41CB50A46521ECDE900028C
:10FE900007A9054B6A46069800F02AF8009A002147
:10FEA00011701CBC5DF814FB5303020002E008C88B
:10FEB000121F08C1002AFAD170477047002001E0E4
:10FEC00001C1121F002AFBD1704700000121202828
:10FED00003DA81400548014003E0402802DA203877
:10FEE000814009B10120704700207047FC06FFBD2A
:10FEF0002DE9FF4F8DB00F460546002606E0252868
:10FF00000BD0DDE90F1290476D1C761C2878002875
:10FF1000F5D111B03046BDE8F08F0024A246A146CD
:10FF20000122EC4900E0044315F8013F203B02FAAE
:10FF300003F00842F7D128782A2810D06FF02F025A
:10FF40002878A0F13001092914D80AEB8A0102EBC4
:10FF5000410144F0020400EB010A6D1CF0E701CFFF
:10FF60005FEA000A03D544F40054CAF1000A44F0E1
:10FF700002046D1C28782E2817D115F8010F44F0C3
:10FF800004042A280ED06FF02F022878A0F1300147
:10FF900009290AD809EB890102EB410100EB0109AB
:10FFA0006D1CF2E757F8049B6D1C28786C280FD065
:10FFB00006DC4C2817D068280DD06A2814D104E03C
:10FFC000742810D07A280FD10DE044F400140AE010
:10FFD00044F4801401E044F440146978814202D171
:10FFE00004F580146D1C6D1C2A786E2A1FD00CDC61
:10FFF000632A31D004DC002A8BD0582A11D1A3E027
:020000040002F8
:10000000642A68D0692A0CD165E0732A2ED004DCFA
:100010006F2A73D0702A04D19BE0752A6FD0782A9A
:100020006ED01046DDE90F129047761C50E1C4F304
:100030000250022806D0032809D0042801CF09D095
:10004000066045E101CFF117C0E9006140E101CF51
:1000500006803DE106703BE117F8040B8DF80000C7
:1000600000208DF80100EB46012003E057F804BBA7
:100070004FF0FF3061074FF0000102D40DE008F1AE
:100080000101884649450FDA8045F8DB1BF8081066
:100090000029F4D108E008F1010188468142FADB29
:1000A0001BF808100029F6D1DDE90F23AAEB0800A0
:1000B0008146214600F036F9304400EB080604E0A2
:1000C000DDE90F121BF8010B9047B8F10108F7D2D8
:1000D00021464846F7E00A21C4F302534FF0000BD3
:1000E0000891022B04D001CFC117032B09D00AE0DD
:1000F000FF1D27F00707F7E8020108E032E01FE0E4
:1001000020E000B2C117042B01D140B2C117031E79
:1001100071F1000307DA4FF0000CD0EB0C006CEB30
:1001200001012D2302E0230504D52B238DF8243073
:10013000012303E0E30701D02023F7E7984658E0C6
:100140000A2110E010210EE010204FF0000B089063
:100150000CE010214FF0000B44F004044FF00809AC
:10016000089103E008214FF0000B0891C4F30253FB
:10017000022B04D001CF0021032B06D006E0FF1D87
:1001800027F00707F7E8020103E080B2042B00D153
:10019000C0B24FF0000823072BD5702A07D0DDF836
:1001A00020C08CF0100C5CEA0B0C05D00EE0402354
:1001B0008DF82430012308E050EA010306D03023F3
:1001C0008DF824308DF8252002239846DDF820C0D4
:1001D0008CF0080C5CEA0B0C0BD150EA010301D146
:1001E000630706D530238DF824304FF00108A9F1BC
:1001F0000109582A04D038A20B9208AA0A920BE0EF
:100200003AA2F9E75B46089AFFF716F80B9B9B5C4E
:100210000A9A521E0A92137050EA0102F2D10A9809
:10022000ADEB000000F1200B600702D524F4803410
:1002300001E04FF00109D94502DDA9EB0B0000E018
:10024000002000EB0B0141440890AAEB010AE003F7
:1002500006D4DDE90F232146504600F063F806443A
:100260004FF0000908E009A911F80900DDE90F12B3
:10027000904709F10109761CC145F4DBE0030CD578
:10028000DDE90F232146504600F04CF8064404E017
:10029000DDE90F1230209047761C0899481E08901F
:1002A0000029F5DC08E00A980A990078491C0A91AF
:1002B000DDE90F129047761CBBF10001ABF1010B99
:1002C000F1DC21465046DDE90F2300F019F8064421
:1002D0006D1C1BE6092801003031323334353637C6
:1002E0003839616263646566000000003031323382
:1002F0003435363738394142434445460000000022
:100300002DE9F041044600251E461746880404D412
:1003100005E039462020B0476D1C641EF9D52846FB
:10032000BDE8F0812DE9F041044600251E469046C7
:10033000C80301D5302700E02027880404D505E054
:1003400041463846B0476D1C641EF9D52846BDE8C5
:10035000F0814A68002A06D00A68531C0B601070AE
:100360004868401E486070472DE9FC470025178803
:100370000646158090F82D001446894630B13A465D
:100380002146484600F0AAFD050009D1B0784FF09B
:100390000C0A18B32088C846001DB84202D950463E
:1003A000BDE8FC87684679DF0028F9D12088032161
:1003B00008F8001020881921401C80B2208008F81D
:1003C00000102088401C80B2208000EB0801BDF89E
:1003D000000003F01AFE218808442080F0780222F1
:1003E000C8B1218896F9033001F1030C4846BC4599
:1003F000D5D8425421884FF0010C491C89B2218084
:1004000000F801C02188491C89B2218009F8013017
:100410002088401C20807068B8B1218890F9003095
:1004200001F1030C4846BC45B9D8425421880A2240
:10043000491C89B2218042542188491C89B22180FB
:1004400009F801302088401C2080308950B1CDE966
:1004500000474B460622022106F1080003F022FE67
:1004600005009DD1308A50B1CDE900474B460722A7
:10047000032106F1100003F015FE050090D1308B2A
:1004800050B1CDE900474B461522142106F1180062
:1004900003F008FE050083D1306A30B13B462246A6
:1004A000494601F0AFF90500DBD1706A30B13B4637
:1004B0002246494601F02EFD0500D2D196F82C00C7
:1004C00038B13B4622464946304603F083F80500E2
:1004D000C7D1307838B13B4622464946304601F014
:1004E000AFFD0500BDD128465AE70000134A0021A0
:1004F000535C0BB1012203E0491C0629F8D300220A
:100500000F49012806D0022809D003280CD004285E
:1005100012D10DE0487810B10AB1012070478878F7
:1005200010B10AB102207047C87808B103207047A3
:10053000087908B104207047002070474126002048
:10054000DC2A002010B501220221002000F04CFF1F
:1005500008B1072810D107220221012000F044FF32
:1005600008B1072808D100210A22084600F03CFF04
:1005700008B1072800D1002010BD000030B5A9B097
:1005800000248DF89C403C2101A8FEF7A4FE022027
:100590008DF804008DF8064005208DF8070027A887
:1005A0000290204677DF3C2110A8FEF794FE0F480A
:1005B00001251590ADF8505020211FA8FEF78BFEA5
:1005C000402023908DF87F50B4202490084B1FAA20
:1005D00010A9009401A800F0B5FA08B100F088F85D
:1005E000012000F0A9FA29B030BD00000626002045
:1005F00061310200022000F0BBBD000070B5002494
:10060000064D06E06868012110F8340001F02CFF67
:10061000641C28788442F5D3002070BD5C2600203D
:10062000F8B515460C460646052A01D20720F8BD46
:1006300002F000F818B901F0CFFF0028F7D11049F7
:1006400000204E600C70C1E902500E4D08610DE0B3
:1006500006EBC4006968009181788DF8011000787C
:10066000094A694601F052FF0028E0D1641EE4B255
:10067000EED2BDE8F840054A0021024800F06CB80F
:100680005C2600200C420200591A0200ED180200FC
:100690000AA1012002F0D8FC0CA1032002F0D4FC36
:1006A000BFF34F8F10480168104A01F4E061114315
:1006B0000160BFF34F8F00BFFDE700003A45525283
:1006C0004F523A466174616C0D0A00003A494E4639
:1006D0004F3A486974207765616B2068616E646C7D
:1006E00065720D0A000000000CED00E00400FA0540
:1006F0000EB500210091CDE901106A4644F20100D7
:10070000FFF7C6FF0EBD10B58268C368934203D0E1
:1007100001F03CF9002010BD052010BD29B112B137
:10072000531E134203D0092070470E20704701600A
:10073000838000218160C1600846704710B58268DF
:10074000C3689A1A83889A4203D801F029F90020D5
:1007500010BD042010BD0000074B9B7823B12AB1C7
:1007600020B10068037C1BB1082070470720704748
:1007700041744261002070479C2C002070B502F04B
:1007800035FE104800240B21047044700E4D81701A
:1007900014206C602C706C70FEF7F6FE072114209C
:1007A000FEF729FF1420FEF705FF08480460072123
:1007B0001120FEF720FF0548001F0068A8600020F8
:1007C00070BD00009C2C0020702600200815014000
:1007D0002DE9FC47DFF8789099F8023073B368B3DD
:1007E000052902D20720BDE8FC87436933B3437C67
:1007F000012B25D0002704460025884616468DF893
:100800000050684600F0CAF801A803F033FCC8B1F4
:10081000012101700F4944600968C0E90218C0E96C
:1008200004769DF8040089F801009DF8000000F0AE
:10083000D9F81420FEF7D4FE2846D4E70820D2E7E2
:100840000F46D8E704259DF8000000F0CBF8F3E749
:100850009C2C0020041501400649897839B130B13B
:10086000416921B100210174022103F041B908203E
:10087000704700009C2C002070B50A4E01460A48C3
:10088000B578FFF740FF04464DB10020B070711CF1
:100890000122C81D01F0EEFF08B1FFF729FF204635
:1008A00070BD000084260020A82D0020F0B5284E41
:1008B00089B01F460D00044672603BD0A8882968A5
:1008C00082B22448FFF72AFF002834D1A889A968FA
:1008D00082B220481030FFF721FF00282BD12022C0
:1008E0001D496846FEF7DEFC60690690207C00B179
:1008F00001208DF814008DF81C70607C00B10E2072
:100900008DF81500E0680290A068039020680190BF
:10091000606800900E48114A6946083001F076FF81
:10092000002808D1B0702068401C04D09DF81D003C
:1009300018B106E0072009B0F0BD0548083001F005
:10094000F1FF03490122491CC81D01F093FFF2E7A2
:1009500084260020A82D0020144202005D3D0200E4
:1009600010B501460B48FFF7E9FE040010D10A4814
:1009700002F022F960B9084906480839FFF7C3FEBA
:1009800030B9054901220839034802F08FF80446BE
:10099000204610BDB82D00208C26002030B5EFF386
:1009A000108172B60D4A9468012324B103700029A6
:1009B00000D162B630BD93604FF0E023D3F8805190
:1009C000074C25401560C3F88041D3F8844154603A
:1009D0005A17C3F8842100220270E8E7C82D0020CE
:1009E000FC06FFBD0B498A68002A11D000280FD1F0
:1009F000EFF3108072B60B684FF0E022C2F80031BE
:100A00004B68C2F8043100228A60002800D162B627
:100A100070470000C82D00202DE9F0410646086807
:100A20000C46411C4FF0A0474FF0010506D005FAD7
:100A300000F1C7F80815206802F037F96068411C1A
:100A400002D0002102F01EF93079204901EB40105C
:100A5000A169007F00283068C0F8241525D0607D8A
:100A6000227D31681043C1F86C05D4E9001230686A
:100A7000C0F80C15C0F8142524E0A068411C02D071
:100A8000002102F0FFF8E068411C05D08540C7F85E
:100A90000855E06802F009F9D4E902123068C0F89C
:100AA0000825C0F81015BDE8F081607D217D326811
:100AB0000843C2F86C05D4E900123068C0F8142568
:100AC000C0F80C15207D0128D7D0ECE7382C002089
:100AD000F0B50C4693B01F210726ADF80010ADF815
:100AE0000410002750B1C17849070DD56A4602A904
:100AF000FFF73AFC002808D102AD02E00025ADF86E
:100B000000706CB1E07810B1304613B0F0BD01AAAE
:100B10000AA92046FFF728FC0028F6D10AAA02E01D
:100B20000022ADF80470BDF80400C3B2BDF80000A7
:100B3000C1B2284672DFE8E701490871704700003A
:100B4000282600202DE9F0471F46DDF820801346B7
:100B50008946040043D0EBB3404D012000262870A5
:100B6000EE70202219463E48FEF79CFB2E71C5E927
:100B700004784FF6FF706881AE613948AE83AE7776
:100B80003C212030FEF7A7FB35482178203001704A
:100B9000A1788170E178C170617841703049D4E901
:100BA0000423C1E90C23D4E90223C1E90A23D4E9CF
:100BB0000623C1E90E23616AE1B100F13C0100F1B5
:100BC000480241628A60636A1B880B80616A436ADB
:100BD000898800E003E099800021436A07E00E2045
:100BE000BDE8F087656AAD686D5C5554491C9D8809
:100BF0008D42F7D8A16AD9B1194A9432A2F10C01F9
:100C00008A608162A36A9B888B80A16A836A098853
:100C100019800021836A04E0A56AAD686D5C5554B3
:100C2000491C9D888D42F7D894F82C1080F82C1020
:100C3000216A49B109490C310162226A52884A800D
:100C4000216A026A09881180616801B141604946E0
:100C5000BDE8F04702482030FFF73ABF28260020C1
:100C6000DC2A002010B50188144C102918D0112955
:100C70001CD01B2919D1007A002816D1E078052153
:100C8000401CB0FBF1F201FB120000BF00F036F88F
:100C900000280AD06169002907D0BDE81040084744
:100CA000C17B012901D18088608110BD0021A17123
:100CB000808861898842F8D10120E7E72826002052
:100CC00010B574DF0B4C01200B49A071002020727D
:100CD0000620C87000210848FFF7FAFE002807D157
:100CE000E07800F00BF810B1616901B1884700208D
:100CF00010BD000028260020FC2A00202DE9F0412C
:100D00003D4C804686B0207848B184F8038004A822
:100D100000F056FE0498012628B1667068E00820AD
:100D200006B0BDE8F0810025A561344FA583A57705
:100D3000787810B1E078012806D0B87858B1E0781A
:100D4000012801D0022806D1216919B16671082055
:100D5000884700E065714046FFF7C8FBE0702169F5
:100D600039B1032801D0042803D1387808B1A0791B
:100D700090B1E57100950295019503958DF80050AD
:100D80008DF808501C48E1781830052925D2DFE895
:100D900001F03108111D21002572E67107208847F6
:100DA000E8E7A67001908DF80060ADF80C50ADF842
:100DB0000A5014E00221A17001908DF80060B889FA
:100DC000ADF80C003889ADF80A0008E0684602F07A
:100DD00045FC02E0684602F065FCE07820B121792C
:100DE000684673DF00289BD1216909B1A078884744
:100DF000002095E7A570F7E728260020DC2A0020D0
:100E000070B5054601461C220F48FEF74BFA0F4C01
:100E100000262670286830B1016861604068A060D3
:100E2000201D7ADF02E00948001D7BDF00280AD17F
:100E30004FF6FF7060806670BDE87040044A002184
:100E40000448FFF789BC70BDB02B00204826002065
:100E500015400200DC41020070B51E4C06880023DC
:100E60001B49E289102E15D01B4D112E1CD0122EBD
:100E700029D0502E17D130F8061F914213D1418945
:100E8000022910D10C3000F0FAF888B1BDE87040AA
:100E900000F0FEBC84884C800469CC604069086125
:100EA0004B70002AF2D070BD4FF6FF7048804B7037
:100EB0002868FFF7D1FC0028F5D0A1690029F2D0FD
:100EC000BDE8704008478268CA60C0680861DDE715
:100ED00048260020B02B0020DC4102007CB50546EE
:100EE00008880C460930904201D90C207CBD684628
:100EF0006DDF0028FAD121880820685420881B2142
:100F0000401C80B2208029542088401C80B2208060
:100F10002844DDF801100160BDF8051081802088AB
:100F2000801D80B220809DF80010490800D001216A
:100F300029542088401C208000207CBD10B5044628
:100F4000FFF78AFF2146094801F0F2F807482146D9
:100F50001C3800F03FF8204602F014F92046FFF755
:100F600081FE2046BDE8104000F08AB9442A0020E6
:100F700030B5174B0D4604000FCB85B08DE80F0040
:100F800023D015B34FF6FF70A0822868A06100201F
:100F9000A0752146684662DF002814D120788DF8BC
:100FA00012000120ADF81000A21C04A9A0DF002847
:100FB00009D12946204602F050FA002803D12946DB
:100FC000204602F01DFE05B030BD0E20FBE70000FC
:100FD000F841020010B5002822D0002920D00A884C
:100FE000102A18D0112A18D0502A19D104468A1D67
:100FF000C88823891231984202D15389022B10D01C
:10100000A38998420CD1A369002B09D052892046AC
:10101000BDE810401847898801E04FF6FF718182D2
:1010200010BD084600F02BF800B10120A07510BDDE
:1010300007B584B068B1828AA2F57F43FF3B0AD02E
:10104000827D42B1BDF818209B2A06D9072007B03F
:1010500000BD0E20FBE70820F9E700220092019274
:10106000029203928288039106A90291ADF80020B2
:1010700001218DF80210808A6946A6DFE7E7007833
:1010800000F001007047000030B52B4885B0002308
:1010900000680490D822294904A802F0C7FB08B1CF
:1010A000FFF726FB00246846009402F031FB08B1EC
:1010B000FFF71EFB012501948DF804508DF80540C3
:1010C000029403948DF8064001A94020009A69DF3C
:1010D00008B1FFF70DFB01948DF804509E20ADF888
:1010E00006000294039401A92320009A69DF08B145
:1010F000FFF7FEFA019402944FF4A0708DF80450AB
:10110000ADF8080003948DF8065001A92020009A3C
:1011100069DF08B1FFF7ECFA684602F00DFB08B191
:10112000FFF7E6FA064802F0FDFA002801D0FFF7C3
:10113000DFFA05B030BD000074410200B426002083
:101140003D0F02000149085C70470000AC410200FD
:101150000649095C4FF0A040D0F81005C84010F0D7
:10116000010000D0012080F001007047AC41020076
:1011700007490B5C4FF0A041D1F8042501209840AD
:1011800020EA0203C1F808351040C1F80C05704789
:10119000A84102000249085C012101F0D1BD000014
:1011A000A84102000249085C002101F0C9BD00000D
:1011B000A84102000649095C4FF0A040D0F80405A0
:1011C000C84010F0010000D0012080F001007047FD
:1011D000A84102007CB50024084E25460122305D5E
:1011E000009500231146019501F004FD641C042CB8
:1011F000F4D3BDE87C4000F003B80000A841020031
:1012000010B500242046FFF7C5FF641C042CF9D359
:1012100010BD10B500242046FFF7C4FF641C042C49
:10122000F9D310BD10B50246064B4FF0FF30002138
:101230005C5C944201D1084610BD491C0429F7D3D7
:1012400010BD0000AC41020070B50C4E0C004FF018
:10125000000530600BD0012000F0A2F808B1022098
:1012600004E0002000F09CF800B10B2020707068B2
:1012700010B9FFF767F90546284670BD2026002003
:1012800010B51A4C0188606810290ED011292BD195
:10129000401E606028D1FFF755F9002824D021684E
:1012A000002921D0BDE810400847D0B90021012213
:1012B000084600F099F808B107280FD1072202214B
:1012C000012000F091F808B1072807D1042202217B
:1012D000002000F089F820B1072802D0216801B170
:1012E00088476068401C606010BD00002026002018
:1012F00010B5002000F0CCF908B1062806D1012075
:1013000000F0C6F908B1062800D1002010BD000089
:101310002DE9F0470D468146FFF784FF0446042877
:1013200036D2DFF874801B481C4EA8F10C0725B399
:10133000012D0ED0022D2BD104EB44003044457812
:10134000002D25D0B968002922D02846BDE8F047F5
:10135000084704EB4401755C0E44717849B10E4AAC
:101360004FF40041093A8068FFF732FA08B987F86C
:101370000390B17808F80410E2E78068FFF76CFA90
:1013800004EB4401314418F804008D78A842D7D00A
:10139000BDE8F087B04102001C260020B02A0020E2
:1013A000FFF7D6BE01460F4810B58088042907D044
:1013B00007290ED00A2914D1BDE8104002F094B9D3
:1013C000132176DF0BE000280BD0BDE81040FFF7BB
:1013D0008FB9A0F57F41FF3903D1FFF771FC0828D1
:1013E000F1D110BDF825002070B50023042810D2DB
:1013F0000D4D00EB4004012A02D101290CD000223E
:10140000094E00EB4000304461B1012906D00229A9
:1014100006D00723184670BD0E30C2B22A55F9E730
:101420004270F7E78270F5E7B02A0020044A0146CF
:1014300000201279D20702D0084600F04DB870475C
:101440001026002070B506461E480024C0E9016140
:10145000B00720D50025012211462846FFF7C4FF1A
:101460006D1C0446042D02D2002CF4D013E094B974
:1014700040F2666204211448FFF7D2F804000AD152
:10148000FFF7BCF8040006D10F48104A0021001FE6
:10149000FFF762F90446F00701D0FFF79BFE74B92D
:1014A00009480B4A00210C38FFF756F9040006D111
:1014B0000548084A01210838FFF74EF9044620463E
:1014C00070BD000010260020BC410200B3160200CF
:1014D000ED1B0200F50502002DE9F05F6A4C0546A0
:1014E00000266078B34618B184F801B000F066FBBE
:1014F000664F4FF47A694FF4C87A4FF00108182DFF
:1015000062D2DFE805F0AC0C0C31404D62676B74C1
:101510006B74BE7D7D7D7D7DACAFB2B5BEBE00205F
:10152000FFF748FE00284FF0000008D0FFF732FE1A
:10153000022D02D14FF4E16008E0484606E0FFF7D3
:1015400031FE022D01D1C82000E05046410CC003FD
:101550004FF4FA72801841F1000125705200002307
:10156000FDF76AFE01462AE00020FFF723FE00286F
:101570004FF0000004D0FFF70DFE4FF44870E5E790
:10158000FFF710FEDFE70020FFF714FE00284FF002
:10159000000002D0FFF7FEFDCFE7FFF703FED4E720
:1015A0000020FFF707FE00284FF0000002D0FFF7F1
:1015B000F1FD01E0FFF7F6FD257041F69A110022DA
:1015C0003868FFF705F9064646E00020FFF7D0FD32
:1015D000257008E0002051E025703DE084F801808E
:1015E0000120FFF7C5FD002240F6CD41E8E784F871
:1015F00001800120FFF7BCFD00224FF48041DFE7AE
:101600007868FFF729F90646D5F1110000D02EB110
:101610000220FFF7BFFD84F802B01DE0012816D9B3
:1016200080B2C8214843C117C90341EA5041C003F1
:101630004FF4FA72801841F1000152000023FDF7C7
:10164000FBFD014600227868FFF7C2F8064602203B
:10165000FFF7A8FD84F802803046BDE8F09F00F057
:10166000ADFAB9E700F0AAFAB4E700F0A7FA04E08F
:1016700000F0A4FA0020FFF795FD0120FFF792FD8E
:10168000AAE7FFF7C6FDA7E710260020B041020039
:1016900010B5FFF757FD032101F01BFB002010BD23
:1016A000002901DA0020704702681144016001201E
:1016B000704700780221FFF72BBE000005494FF06C
:1016C000FF32082841F8202002D3084480F848203F
:1016D00070470000E02B0020F0B54FF0FF3512B14D
:1016E0000023082601E008230C260C4C05E000BF6F
:1016F00054F823707F1C04D05B1CB342F8D32846F7
:10170000F0BD26185DB286F8305044F82310002A48
:10171000F5D1E11881F84800F1E70000E02B002046
:101720000249084490F9300070470000E02B002087
:1017300070B5084C050009D010342168002907D085
:1017400008682060496828468847F6E70834F4E7C7
:1017500070BD0000CC2B00202DE9F05F26484168C9
:10176000F1B3DFF898B00E688146DBF80040876877
:101770008078E11B21F07F45ED1CB0B9DFF8808057
:101780004FF48030C8F84403C8F804031120FDF773
:10179000FBFE1120FDF70EFF4FF0010AC8F800A074
:1017A0002F2000F0BBFD89F802A0B54200D23546DB
:1017B000124BE8193C3320F07F401860DBF8001032
:1017C0005A46091B21F07F41001B20F07F40C91CB5
:1017D00081420FD9106818602F2000F09FFD00E0B3
:1017E00004E0BDE8F05F1120FDF7FABEBDE8F05F50
:1017F00001F0FCBDBDE8F09F7026002004150140FB
:10180000001001402DE9F04117880646B81D144626
:101810000D46984202D90C20BDE8F081318807229C
:1018200006290AD34FF4486C4FF6FF73614501D97E
:10183000994202D17088062801D21046ECE7604533
:1018400001D99842F9D1994203D0984201D08142FE
:10185000F3D80520E85520881221401C80B2208052
:1018600029542088401C80B220804119308802F021
:10187000CCFB2188084480B220804119708802F096
:10188000C4FB2188084420800020C5E7FEF730BF54
:10189000F8B5134800F084F9114D0026114C0C3DA9
:1018A00030B16169B9B101208DF80000684611E0DE
:1018B000287820B1616971B18DF80060F6E7687829
:1018C00058B1A168084800220068FEF781FF10B1F6
:1018D000A16901B188472E70F8BD6168F2E7000088
:1018E00054260020B02B0020DC4102002DE9F041FD
:1018F00000260125144C22E06068226900EBC6072F
:10190000387805FA00F1114217D08A43226100F0BD
:1019100059FE02463878E36805FA00F1194002FAE8
:1019200000F3994209D17978012901D0012100E021
:10193000002151407A6802B19047761CF6B22078B7
:101940008642D9D3BDE8F0815C2600200E4910B54F
:101950000A784C780023A24212D0521CD2B20A70EC
:10196000022A00D10B70084A0B780C3252F823205F
:1019700002608868104420F07F408860012010BD1C
:101980000360002010BD000070260020826883885C
:101990001A4003689A5C0A708168491C816070472C
:1019A000C26883881A4003689954C168491CC160A1
:1019B000704710B50446C0B2FEF7D2FF204610BDF6
:1019C00020B10349496E0160002070470320704731
:1019D000D42D002009484A8883889A420DD10A886C
:1019E000A2F52063773B08D18988C91E8AB2C280DC
:1019F000134603A1032001F032BB7047F8250020F5
:101A00004150503A494E464F3A44617461206C65EA
:101A10006E2069732073657420746F2030782558A8
:101A2000282564290D0A000010B50949094800F06D
:101A300069FB08B1FEF75CFE4021064800F056FB4A
:101A4000002803D0BDE81040FEF752BE10BD0000D4
:101A5000D5190200442A00202DE9F041124E074614
:101A60000125BD403068FEF7F7FE00280DD10F4C70
:101A70002069284207D1384600F0A4FD0028E0681C
:101A800005D0284304E0A8432061BDE8F081A843C5
:101A9000E060206928432061A1683068BDE8F0411A
:101AA0000022FEF795BE00000C4202005C260020DA
:101AB000F8B51C4C2078002832D02069002658B197
:101AC0000025607800282BD1684648DF052805D01E
:101AD00030B1FEF70DFE0AE00125F2E7012606E02F
:101AE000009800F09DFCA16809B1009888479DB955
:101AF0006078002814D16088ADF800006946E0687D
:101B000061DF052803D020B1FEF7F2FD04E00125D6
:101B100002E0D4E903018847002ED2D0002DE6D0A0
:101B2000F8BD00009C26002070B50E4604460079E2
:101B300018494FF4A27501EB4010017F2068A1B154
:101B40004FF4887101F0C6FA4FF49071206801F0EB
:101B5000C1FA4FF49271206801F0BCFA294620685E
:101B600001F0B8FA0C49206809E04FF48E7101F0D9
:101B7000A0FA2946206801F09CFA08492068C0F8BC
:101B80000413206800F06DFC3146BDE8704000F0A1
:101B90004CBC0000382C0020100302008000020022
:101BA000054940880A88904204D34988884201D870
:101BB00001207047002070474C2600200A4810B5CD
:101BC000807860B1002401E0022C06D02046FFF7A7
:101BD000E1FA641C042CF7D310BD0324F6E7BDE83A
:101BE0001040FFF70DBB00001026002003480179CC
:101BF000C90702D00078FFF76FBC7047102600209D
:101C00009E21018017214180002101714171A22193
:101C100081711B21C17170472DE9F047394E0027B2
:101C200080463D46DFF8E090D6F804A057E003D0A8
:101C30000446D0F81C8035E099F8002002EB420100
:101C4000521CD2B289F8002009EBC10199F8023088
:101C5000091D9A4201D189F8005048680A78044663
:101C6000012A12D0022A02D0032A3BD108E001F057
:101C70000FFF00B10127257434E00574C06900E04E
:101C800070680028F9D170602CE0207C50BB886817
:101C90006060C868A0600869E0604869A061F07889
:101CA00000B165606268B168184B501A20F07F403F
:101CB000984202D2A168084406E0881AA16820F080
:101CC0007F40814202D9081A206000E025606560EB
:101CD0000120A56020742046E56101F0BBFEB8F14B
:101CE0000000A4D199F8001099F801008142A3D115
:101CF00017B97168514502D00120BDE8F087002076
:101D0000FBE70000702600209C2C0020FFFF7F00D6
:101D10008AB0FEF733FD08B1FEF7EAFC18226749E6
:101D20006846FDF7BFFA6648069066494FF4807032
:101D3000CDE9070109900723634A06A96846FEF723
:101D4000B5FD08B1FEF7D4FC002001F097F908B109
:101D5000FEF7CEFC5D490320FFF774FB08B1FEF7E8
:101D6000C7FC69460020FFF76FFA08B1FEF7C0FC18
:101D7000FFF78AF99DF8080055A120F00F00401CDC
:101D800020F0F00010308DF808000B2202A87CDF54
:101D900008B1FEF7ADFC002400940820ADF8000067
:101DA00010200194ADF80200ADF804404FF4C87063
:101DB000ADF8060068467ADF08B1FEF799FCFFF738
:101DC00033FE4648009069464548FFF7D1F808B110
:101DD000FEF78EFCFEF7D2FB1C216846FDF77BFA6E
:101DE0004FF42030CDE900404FF4702002900320E2
:101DF0008DF80C003B4805903B480690ADF80E402E
:101E00008DF810406846FEF7FBFF08B1FEF770FC46
:101E100036A0FEF727F839A1032001F015F90320B9
:101E2000FEF76CFF08B1FEF763FC00F0A5F8FDF7C4
:101E3000E7FCFDF71DFC02211120FDF76BFDFDF70E
:101E4000C1FCD6210120FDF743FFC0210220FDF790
:101E50003FFFE1210320FDF73BFF60210520FDF757
:101E600037FF60210620FDF733FF60210720FDF7D3
:101E70002FFF60210820FDF72BFF50210D20FDF7DB
:101E800027FF50210E20FDF723FF02210420FDF73C
:101E90001FFF00210F20FDF71BFF00211020FDF781
:101EA00017FF00211120FDF713FF162000F03AFF65
:101EB0000A2000F0EDF9FDF715FB0000904102004B
:101EC0002728002027290020F93C0200A513020042
:101ED0004543475F30315F7465737400E130020041
:101EE000282A0020B53202008D1802000D0A554143
:101EF0005254205374617274210D0A004150503ABB
:101F0000494E464F3A5541525420537461727421E0
:101F10000D0A000070B5144682880E4605462088DA
:101F2000111D0144921C994201D8FE2A01D90C20AE
:101F300070BD521C32542088FF21401C80B220808A
:101F400031542088401C80B220808119288802F0FA
:101F50005CF82188084480B22080AA8842B1A96830
:101F600041B13044FDF79EF92088A98808442080BB
:101F7000002070BD072070BD10B586B0162000F09F
:101F80008AFE142000F087FE0B2000F084FE0F2054
:101F900000F081FE002410200323009422462146F5
:101FA000019400F015FE0B2000F0BCFE0F2000F0A5
:101FB000B9FE162000F0AFFE142000F0B3FE164A62
:101FC0000023D2E903019269CDE902010C208DF8CA
:101FD0000A000D208DF8090005920E208DF80800EA
:101FE0008DF8154001208DF8140080070490022020
:101FF0008DF80C0008488DF80D40084A02A9001D14
:1020000000F032FB08B1FEF773FB05A1032001F0DD
:102010001BF806B010BD0000744102009D3802009C
:102020004150503A494E464F3A53504920657861E5
:102030006D706C6520737461727465642E0D0A0096
:10204000F8B50E46017814460546012901D1687895
:1020500030B12088821C9A422DD8012902D006E096
:102060000720F8BD69780144891C994223D8181AC1
:10207000801E87B2ADF800702188B01C0844694604
:102080007DDF0028EDD12878022805D1BDF80010A9
:10209000B94201D809210AE00821012805D1687850
:1020A000B84202D8ADF8000001E0ADF80070BDF80C
:1020B0000000FE2801D90C20F8BD2288401CB05435
:1020C0002088401C80B2208031542088401C208011
:1020D000BDF80010084420800020F8BDC20800F0C0
:1020E00007030120895C98400840704728B1A1F19E
:1020F0001702882A03D3072070470E2070470180FB
:102100000020704770B5040010D09E20A16120808F
:102110006080A2202071002504EBC500801DFFF720
:102120006FFD6D1C022DF7D3002070BD0E2070BD19
:102130002DE9F0418D8890B00446022D7ED20888AA
:10214000DFF82081002622283CD006DC102809D0A8
:1021500011280BD021286AD150E03A280CD05528FC
:1021600065D12BE0204601F0B3F860E004EBC50038
:10217000801DFFF745FD5AE02A4604EBC207488957
:1021800037F8061F814200D808467880172800D209
:1021900017207880A06970B1787960B1D8E9001013
:1021A000CDE90010ADF802207888ADF80400A269EE
:1021B0002046694690477E713E7138E0204601F026
:1021C000C9F834E034226846091DFDF76BF8BDF804
:1021D0000000BDF8042004EBC0014A73A26932B3C9
:1021E000D8E90432CDE90D32ADF83600487B8DF8E0
:1021F0003800A26920460DA9904718E00096019684
:1022000031F8040F04EBC0000A79007B904200D340
:102210001046ADF80000ADF80200088800226946BB
:102220008FDF020003D01049012000F011FF04EB02
:10223000C504A07A002812D0E18800E00FE028460B
:102240009EDF020008D0112A09D010B00749BDE86E
:10225000F041012000F0FCBEA6720120E07210B037
:10226000BDE8F081E041020070430200BC42020080
:1022700000F180400068002800D00120704708B5B8
:1022800000F18040002101600068009008BD00005E
:1022900000283ED01F49204A096800BF00BF00BF88
:1022A00000BF00BF00BF00BF00BF91422FD000BFE2
:1022B00000BF00BF00BF00BF00BF00BF00BF00BF26
:1022C00000BF00BF00BF00BF00BF00BF00BF00BF16
:1022D00000BF00BF00BF00BF00BF00BF00BF00BF06
:1022E00000BF00BF00BF00BF00BF00BF00BF00BFF6
:1022F00000BF00BF00BF00BF00BF00BF00BF00BFE6
:1023000000BF00BF00BF00BF00BF00BF00BF401E36
:10231000C3D17047B02600200024F40000283ED02E
:102320001F49204A096800BF00BF00BF00BF00BFAF
:1023300000BF00BF00BF91422FD000BF00BF00BF51
:1023400000BF00BF00BF00BF00BF00BF00BF00BF95
:1023500000BF00BF00BF00BF00BF00BF00BF00BF85
:1023600000BF00BF00BF00BF00BF00BF00BF00BF75
:1023700000BF00BF00BF00BF00BF00BF00BF00BF65
:1023800000BF00BF00BF00BF00BF00BF00BF00BF55
:1023900000BF00BF00BF00BF00BF401EC3D17047D9
:1023A000B02600200024F40070B50F4C00252078E2
:1023B00008B1852516E00021A16061602161E1601E
:1023C0004FF0E020D0F80001012610F0010F03D1FA
:1023D0000721002000F029F801F05AFA08B9034853
:1023E00006602670284670BDCC2B002018050040E2
:1023F00038B500208DF800006846FEF7CFFA074C8C
:10240000207808B9FFF7D0FFE068401CE0600120A9
:10241000A0709DF80000FEF7E5FA38BDCC2B002037
:10242000002801D1FFF784B970474907090E002839
:1024300006DA00F00F0202F1E02282F8141D03E038
:1024400000F1E02282F8001400F01F020121914007
:102450004009800000F1E020C0F88012C0F80011AF
:102460007047000B40B270472DE9F04188460546A1
:1024700000F0A4FF234E002828461AD0FFF750F999
:10248000304490F848008009032802D001280ED07B
:1024900007E04FF0A040D0F81005E84010F0010F21
:1024A00005D003212846BDE8F04100F023BC0221FD
:1024B000F8E700F08FFF002822D02846FFF730F918
:1024C00004464FF4807000EB84000F4F81B207EB9D
:1024D0008400D0F8102542F00102C0F8102508460B
:1024E00000F04EFCB8F1000F0AD02846FFF718F9AB
:1024F00056F82000002803D00120A040C7F80403AC
:10250000BDE8F081E02B0020006000402DE9FC4197
:10251000DFF8A480044608EB0400002790F930009F
:102520001346C0170E46401C01D0082741E0F27840
:1025300019462046FFF7D0F80546401C38D0B07841
:1025400050B14FF0A04000EB8400D0F8001721F00C
:102550000201C0F8001707E00021737820460091BF
:102560000A46019100F058FBF078C0B11348317869
:1025700000EB8500D0F81025114B1A40C0F810254B
:102580004FF4F8524FF4403302EA042203EA0141C7
:102590000A43D0F810150A43C0F8102509E008EBEB
:1025A0000500327810F8481F41EA8211017000E0FE
:1025B00004273846BDE8FC81E02B00200060004085
:1025C000FFE0FCFF4FF0A041D1F81015C14011F021
:1025D000010000D00120704770B5144D95F85400EB
:1025E00008B1082070BD0020411E2A18401CC0B24E
:1025F00082F830102028F8D300242046FFF75EF838
:10260000641CE4B20C2CF8D307210620FFF70DFF61
:102610004FF4BE7000F0B4FB05494FF00040C1F824
:102620000403012085F85400002070BDE02B002039
:1026300000600040034890F85400002800D00120BA
:1026400070470000E02B00200121B1EB507F01D149
:1026500001207047002070470121B1EB507F01D16C
:1026600001207047002070472DE9FC5F80464079CB
:102670000C4600EBC001454800EB8107387F10B1E4
:102680000820BDE8FC9FC7E90023207B4FF0A04B4A
:102690004FF0010A012805D822780AFA02F0CBF897
:1026A0000C0502E0207800F044FB4FF00009CDF863
:1026B0000090CDF8049020784B464A46012100F066
:1026C000CFFA65784FF0FF36FF2D07D00AFA05F0F4
:1026D000CBF80C05284600F0F2FA00E03546A07869
:1026E000FF2809D0002206464B46CDF8009011463F
:1026F000CDF8049000F0B4FAE078FF2804D000F0A0
:1027000018FBE07800F0DBFA98F80500E17800EBC0
:10271000C0021E4800EB82008177D8F800002178C3
:10272000C0F80815C0F80C55C0F81065A168C0F8CD
:102730002415227B617B01B10121012A04D0022AE8
:1027400005D0032A08D105E041F0020104E041F080
:10275000040101E041F00601C0F854156179C0F8A8
:10276000C015396811B14021C0F804130721C0F821
:102770000015386820B1217998F90400FFF755FE5B
:10278000484687F81D9087F81CA07AE7582C00204F
:102790001FB5069C00918DF8042002938DF80C4023
:1027A0000022694600F002F804B010BDF0B40D46F6
:1027B00013464179144A01EBC10102EB81014A7FC2
:1027C00012B1F0BC112070470C6801221CB113F04B
:1027D000140F00D14A7795E8D0100C3181E8D01061
:1027E00011F8154F24F0070401F821498C7FFF2CC4
:1027F00004D04FF0A046A240C6F80C2500682A4637
:10280000F0BC01F08DB80000582C00202DE9F041FB
:1028100005460079164F904607EB40140E46E07EC1
:1028200010B10820BDE8F081707F20772846FEF7C0
:10283000F3F85FEA080060603169216003D0317FFE
:102840002846FFF771F9287907EB4010007F002830
:10285000286801D0082100E00421C0F800150020FC
:10286000E0752076A0750121E176A076DAE7000018
:10287000382C00202DE9F04105460079284E90467D
:1028800006EB40140F46207F18B10846FFF7DCFE28
:1028900080B1626800234FF404704FF4017172B18B
:1028A0002A7906EB4212127F002A2A6805D0C2F864
:1028B000080304E01020BDE8F081C2F80813E27DAF
:1028C000B2B1227E7AB162685AB12A7906EB42121D
:1028D000127F1AB12968C1F8040302E02868C0F821
:1028E00004131120E7E72761012384F8188005E02D
:1028F00084F817800020E7606076207628794246C9
:1029000006EB40103946007F0028284603D0BDE87A
:10291000F04100F073B8BDE8F04100F01BB80000D2
:10292000382C002070B504460079094D05EB4010A5
:10293000017F00290AD1807E002807D1204600F0BF
:10294000E9FD2179012005EB4111887670BD000079
:10295000382C00202DE9F05F04460079264901EB70
:102960004015A87E184302D1204600F0D3FD6868C8
:102970000028206806D04FF40171C0F8041300202D
:10298000BDE8F09F4FF4A276314600F092FBB146CD
:102990004FF4927A4FF4847B5146206800F084FB18
:1029A00006465946206800F07FFB8046494620686D
:1029B00000F07AFB074648EA07003043ECD056EABD
:1029C000070007D12946206800F02EFDE87D697ECA
:1029D0008842E1D80020E8750EB10320D0E70FB19E
:1029E0000F20CDE7A97E01200029216801D00860D1
:1029F000C5E74860C3E70000382C00202DE9F05FF0
:102A0000894604464FF488759A4690460026006829
:102A1000294600F05FFB4FF4A2773946206800F0AA
:102A200059FB2068C0F83495C0F838852068BAF1A1
:102A3000000F14D0D0F8001241F02001C0F80012AD
:102A40002179DFF8648008EB4110406850B12068BC
:102A50004FF40471C0F804133046BDE8F09F012123
:102A60000160EDE7AA46B9464FF4927B51462068D3
:102A700000F02BFB07464946206800F026FB054680
:102A80005946206800F021FB014647EA050008434B
:102A9000ECD02379002208EB4310C27501B1032664
:102AA000002DD9D00F26D7E7382C00202DE9F0478C
:102AB000054600793F4E904606EB40140F46207FB6
:102AC00018B10846FFF7C0FD30B1284600F074F891
:102AD00020B11120BDE8F0871020FBE784F81680B4
:102AE000A7600027A78228794FF0010806EB401461
:102AF0003E46207F0028286825D04FF4907949462B
:102B000000F0E8FA4FF4AC7A5146286800F0E2FA97
:102B10002868A17DA268C0F84425C0F84815286837
:102B2000C0F808806068F0B94946286800F0CDFA1E
:102B300080465146286800F0C8FA58EA0001F3D0F0
:102B400058BBA7750FE04FF48E7A514600F0B1FAEA
:102B50002868C0F808802146286801F041F86168BB
:102B60004FF4807089B13046B4E75146286800F0D0
:102B70009BFA10B9A08A4845F7D1A08A484505D0EC
:102B80002146286801F02CF800E08146A08AA17D4A
:102B90008842EAD3A08A484501D10F26D1E75146A1
:102BA000286800F081FA0028F9D02868C0F80C8065
:102BB000C7E70000382C00200079044901EB4010E1
:102BC000807D002800D0012070470000382C0020B4
:102BD00070B541EA4201DDE904564FF0A04441EAF4
:102BE000830141EA052104EB800041EA0641C0F877
:102BF000001770BD70B541EA4201DDE904564FF09F
:102C0000A04441EA830141EA052104EB800041EA46
:102C10000641C0F8001770BD70B541EA4201DDE918
:102C200004564FF0A04441EA830141EA052104EB38
:102C3000800041EA0641C0F8001770BD70B541EA56
:102C40004201DDE904564FF0A04441EA830141EA24
:102C5000052104EB800041EA0641C0F8001770BD71
:102C600070B541EA4201DDE904564FF0A04441EA63
:102C7000830141EA052104EB800041EA0641C0F8E6
:102C8000001770BD1CB500220B4600921146019240
:102C9000FFF7D4FF1CBD1CB5002100910B4601229B
:102CA00001911146FFF794FF1CBD1CB50021009156
:102CB0000B46012201911146FFF7C0FF1CBD1CB558
:102CC000002100910B46012201911146FFF7C8FF38
:102CD0001CBD4FF0A04202EB8000D0F8002722F488
:102CE0004032C0F80027D0F8002742EA0141C0F87E
:102CF000001770474FF0A04202EB8000D0F8002789
:102D000022F44032C0F80027D0F8002742EA0141FF
:102D1000C0F8001770474FF0A04201218140C2F86F
:102D20000C1570474FF0A04201218140C2F80815F0
:102D300070474FF0A04201218140C2F8081570474A
:102D400001224FF0A043824011B1C3F8082570471B
:102D5000C3F80C257047000018B5084B6C460144B9
:102D60001B68009306E000BF54F82030D3F81035FC
:102D7000401C08C28142F7D818BD0000084202007A
:102D8000034908B50844002101600068009008BDAF
:102D90000060004002494058012800D000207047E0
:102DA0000060004000487047D12D020070B5074D0B
:102DB0000446287810B16878844204D0FCF738FDC6
:102DC000012028706C70002070BD00009826002043
:102DD0002DE9F04FC1B017464FF0000208004092B5
:102DE0004D994B9A1E4602EB010A01D00A2100E0E0
:102DF000002188466D46AEB9294640AA00F0D6FEAD
:102E000000286FD03846FCF771FAC22800D9C220DA
:102E100004464098224628443946FCF743FA409835
:102E2000204440904FF0200B409901EB08023132D2
:102E30000DEB01040DEB0205002002E004F801BBDC
:102E4000401C4045FAD30027564508D304F801BB7F
:102E500004F801BB04F801BB05F801BB2DE04B9859
:102E6000864202D24A98805D02E0311A4C98405C5A
:102E7000012181460246880022FA00F000F00F008E
:102E8000092801D9373000E03030C1F1010C234668
:102E900004F80C00491EEED29C1C04F801BBFCF7A0
:102EA000FDF9016811F8090010F03E0F01D0484605
:102EB00000E02E2005F8010B761C7F1C102FC3D3D9
:102EC0000D2028700A20687084F800B04099684688
:102ED00041444331409100F065FB18B1002040901F
:102EE0005645A1D341B03046BDE8F08F2DE9F04101
:102EF000C6B090460846002505AE1C464C9F31469C
:102F000045AA459500F052FE002835D0072F27D25C
:102F1000DFE807F004121B35424F5D004046FCF726
:102F2000E5F9459905460844FF2819D870182A463E
:102F30004146FCF7B7F913E045982368C0F5807166
:102F400030444246FCF79EFF09E0606800904598D7
:102F50002368C0F5807130444246FCF793FF054674
:102F6000294645A8FEF79CFB459978B3B1F5807FCB
:102F70003ED805A800F016FB46B0BDE8F081D4E9C4
:102F80000101CDE9000145982368C0F58071304406
:102F90004246FCF777FFE2E7201D07C88DE80700EF
:102FA00045982368C0F5807130444246FCF76AFFBB
:102FB000D5E7201D0FC88DE80F0045982368C0F5A0
:102FC000807130444246FCF75DFFC8E710E004F131
:102FD000080001AD0FC885E80F00606800904598B3
:102FE0002368C0F5807130444246FCF74BFFB6E7DA
:102FF0000020C1E700487047ED2E020038B50D46AD
:103000000093034B00215C6913462A46A04738BD54
:103010003C2E00202DE9FF471C460023094F164691
:10302000884681461D460096CDE901450395D7F8AF
:1030300018C0424600214846E0470346A042F2D36A
:10304000BDE8FF873C2E002000231A46FFF7D6BFBD
:1030500008B5012300926A46FFF7D0FF08BD1CB5F2
:10306000CDE9002302236A46FFF7C8FF1CBD00001C
:10307000014AC2E9050170473C2E002070B50120CD
:10308000FFF794FE040008D1FFF7B4FF0546FFF7F1
:1030900089FE01462846FFF7EBFF204670BD4058E9
:1030A000002800D0012070474058002800D001209F
:1030B000704708B5002242504058009008BDD0F833
:1030C0000403084000D0012070474058002800D079
:1030D0000120704708B5002242504058009008BDBA
:1030E0002DE9F04117460E4600250FE0705DFDF713
:1030F00037FC040009D0112CF8D002460AA10120A7
:10310000FFF7A6FF2046FDF7F3FA6D1CBD42EDD395
:10311000F01910F8010C0D2804D10A20FDF720FC4D
:103120001128FAD0BDE8F0814150503A4552524F33
:10313000523A4661696C65642072656365697669B7
:103140006E67204E5553206D6573736167652E2041
:103150004572726F7220307825782E200D0A00009B
:1031600010B550B103280CD10220FEF75FF90028FA
:1031700007D0BDE81040FDF7BBBABDE8104000F035
:10318000B3BA10BD30B53E4D04460188A88889B059
:10319000212933D00CDC01294BD0102914D011295E
:1031A0001CD0132934D100231A4685217FDF35E056
:1031B0003B293AD0512940D052292BD0562927D12A
:1031C000A088132176DF29E00720FEF72FF908B148
:1031D000FDF78EFAA088A8802AA109E00020FEF75A
:1031E00025F908B1FDF784FA4FF6FF70A8802BA1EE
:1031F00009B00320BDE83040FFF726BF0020009053
:103200000190A088002269468FDF34E0FDF770FA54
:1032100009B030BD00231A461946A9DF0028F7D0AF
:1032200009B0BDE83040FDF763BAA088132176DF0E
:10323000F4E7A088002166DFF0E71022A11D04A8B2
:10324000FCF730F89DF810100029E1D09DF8180027
:10325000042803D0062801D00528D9D102290DD091
:103260005FF001008DF800004FF4C170ADF804006C
:10327000A0886946A8DF0028C8D1C9E70220F1E785
:10328000F82500204150503A494E464F3A436F6E60
:103290006E65637465640D0A000000004150503A89
:1032A000494E464F3A446973636F6E6E6563746549
:1032B000640D0A000078002807D104483B2180886B
:1032C00076DF002801D0FDF713BA7047F8250020FB
:1032D0007CB58E88027900EBC605AC1D2A73C97BCC
:1032E000012902D0022904D101E0008800E04088D1
:1032F00020802188608881420AD930469EDF020002
:103300004FF001001DD0112A1DD01049FFF7A0FE7B
:10331000A079E179884213D9002000900190287BA0
:10332000ADF80000287BADF8020000226946304667
:103330008FDF030004D0324605490120FFF78FFEDE
:103340007CBD6071E4E72071E2E70000BC4202004E
:10335000D04302007CB506468D88C88806EBC504BC
:10336000A41D172800D217202188814200D80846C2
:1033700060800020207121882846ADDF020003D044
:103380000C490120FFF764FE6079002810D1B06974
:1033900000280DD00849D1E90201CDE90001ADF8BE
:1033A00002506088ADF80400B26969463046904723
:1033B0007CBD000018430200E041020004490844BB
:1033C00090F93000082801DB012070470020704789
:1033D000E02B00200449084490F93000082801D26D
:1033E0000120704700207047E02B002070B50126B7
:1033F00070044FF0E0210025C1F88001084C401016
:10340000C4F84803C4F8080366602F20FEF786FF5F
:10341000A660044C2F20A560FEF780FFA57070BD4C
:10342000001001407026002070B50546C87D0C468E
:1034300000284FF4847128460AD0FFF73AFED5F8E9
:103440001805627EE1688854607E401C607670BD1D
:10345000FFF72FFED5F8180570BD30B58FB00546C3
:103460001C216846FBF737FF00249DF800000194FB
:1034700040F00C008DF80000039404940594069429
:1034800028788DF836000220ADF834000C949DF8B1
:103490003000142120F00F00401C20F0F00010300C
:1034A0008DF830009DF8310020F00F00401C20F016
:1034B000F00010308DF831009DF8320020F0060049
:1034C000801C20F0180040F001008DF8320007A8A1
:1034D000FBF701FF0DA807900CA808900120ADF89C
:1034E00024009B20ADF82640ADF82800688805F13F
:1034F0000C0307AA6946A2DF0FB030BD1FB5012338
:103500008DF800308DF808100192D0E9001268465D
:1035100090471FBD10B5044600684FF49271FFF745
:10352000C8FD4FF484712068FFF7C3FD20680121B6
:10353000016010BD10B50446FCF7C8FC40B1002C7A
:1035400009DA04F00F0000F1E02090F8140D06E015
:1035500042F2010010BD04F1E02090F8000441099E
:10356000082914D299B1012911D004290FD00529B5
:103570000DD00B480122816861B1610950F82130FA
:1035800004F01F04A240134340F8213005E042F24A
:10359000020010BD2046FCF718F8002010BD000006
:1035A000C82D00202DE9F041002507464FF0010805
:1035B0000C460A26791922460020FCF743F90544F7
:1035C000241A08B9761E01D0002CF3D14046BDE87C
:1035D000F08100002DE9F0410746806A14468846D4
:1035E000C8B3002531E000BFB96A05EB450001EB27
:1035F0008006B088801CFE2802D90C20BDE8F0812E
:103600002288401C08F8020020881622401C80B244
:10361000208008F800202088401C80B2208000EB29
:103620000801308800F0F1FC2188084480B2208035
:10363000B28842B1B16871B14044FBF733FE2088D3
:10364000B188084420806D1CEDB297F82C00A84288
:10365000CAD80020D2E7FFE70720CFE710B50F490F
:103660000F4C0A8A42818A8A8281097891B1A179B4
:1036700081B9217A71B102210172084904202031F7
:10368000C870064800212030FDF722FA002804D136
:10369000052000E00320A070002010BDDC2A0020DF
:1036A0002826002010B50E490E4C0A8B42818A8BC9
:1036B00082810A78042182B1A27972B9227A62B138
:1036C0000222027206482030C1700021FDF700FA84
:1036D000002804D10620A07000E0A170002010BDD9
:1036E000DC2A00202826002010B50020FDF79EFED1
:1036F00008B1FCF7FDFFFDF7FBFD08B1FCF7F8FF93
:1037000032DF002803D0BDE81040FCF7F1BF10BD48
:1037100008B5034A009200210260084608BD000077
:10372000F825002018B103490861002070470E20D9
:10373000704700009C26002038B5054600680090C0
:10374000684660DF04462868009A90420FD00CA1BA
:103750000220FFF77DFC4FF08050D0F80C0100995B
:10376000800200F10050421A12A1022003E024B1AD
:1037700022461DA10120FFF76BFC204638BD00004A
:103780005344483A5741524E494E473A52414D20D0
:1037900073746172742073686F756C642062652045
:1037A00061646A757374656420746F20307825785D
:1037B0002E0D0A005344483A5741524E494E473A5B
:1037C00052414D2073697A652073686F756C64206F
:1037D00062652061646A757374656420746F20305B
:1037E0007825782E0D0A00005344483A4552524F2E
:1037F000523A73645F626C655F656E61626C6528E6
:10380000292072657475726E656420756E657870B6
:1038100065637465642076616C75653A203078253F
:10382000782E0D0A00000000FCF732BF2DE9F041B0
:10383000074619B188074FF0000402D00720BDE801
:10384000F081114D4FF0E0200126E9606A806B6045
:10385000D0F8000110F0010F03D034460020FBF730
:103860009EFE0A49384610DF070005D014B100203B
:10387000FBF7ABFE3846E2E72E70FEF7B9FDBDE878
:10388000F0411620FFF756BE9C2600202938020082
:1038900001480078704700009C2600200D4910B5B3
:1038A000012048700CA10320FFF7CEFB12480278DC
:1038B000002A0ED011A10320FFF7CAFB0E48FBF728
:1038C00015FD83B2BDE810400B4A12A10320FFF79B
:1038D000A1BB10BDF82500204150503A494E464F3B
:1038E0003A5472616E7366657220636F6D706C65B9
:1038F0007465642E0D0A0000602A00204150503A81
:10390000494E464F3A2052656365697665643A25AB
:10391000780D0A004150503A494E464F3A0D0A0080
:103920002DE9F843044610681E4615460F464FF031
:10393000000810B1FEF790FEF8B1A86810B1FEF7CC
:103940008BFED0B128792968C4F84415C4F848051D
:10395000287BA968C4F83415C4F838054FF48C7571
:103960004046C4F81881D4F818110091F2074FF0BE
:10397000010107D0C4F8501506E087F81D8010201B
:10398000BDE8F883C4F85005B20702D5C4F8401565
:1039900001E0C4F84005300700D42161386848B11F
:1039A00046F38000401C4FF040000FD0C4F80403E1
:1039B0000020E5E729462046FFF771FB0028F9D0F3
:1039C000B87FFF28F4D0FFF7B4F9F1E7C4F8080393
:1039D000EEE700002DE9F84F1D4C00256846D4E9BC
:1039E00001A6FDF7B3FF002738B30023009A6168F2
:1039F0001CE0D1F800C00846944503D9ACEB0202A4
:103A00000A6015E0A2EB0C0263440760D0F80CC01A
:103A1000C1698146BCF1000F08D006EB030828F00D
:103A20007F48C0E9018CC9F81C5005460029E0D147
:103A300028466160FEF7F0F803E02846FEF7ECF850
:103A400010B15046FDF788FEE770BDE8F88F000022
:103A5000702600200D4B10B5596831B102680C6812
:103A6000A24204D8A21A0A60C161586010BD0B4678
:103A700003E00B46C969121B21B10C689442F8D3CC
:103A8000A41A0C600260C161D86110BD70260020CC
:103A90002DE9F041144E77683D462C4603E0844200
:103AA00004D02546E469002CF9D11BE0D4B1A5422D
:103AB0000BD1F869706040B90C4901208860002181
:103AC000B160F0702F20FEF729FC2168E069E86101
:103AD00010B10268114401607068874202D0012071
:103AE000BDE8F0810020FBE77026002000100140B7
:103AF0007CB5064600240D468DF800406846FCF76C
:103B00004DFF01A800F0B6FA70B105700949466092
:103B10009DF8040048709DF80000FCF763FF142036
:103B2000FBF75EFD20467CBD04249DF80000FCF7F9
:103B300059FFF7E79C2C00202DE9F041194D6C68E6
:103B4000002C2CD0184800270068A968B846401AF5
:103B500020F07F462068B0420CD82146361A074430
:103B6000E469087C20B181F8108088694969884738
:103B7000002CEFD129786878814206D1401CC0B270
:103B80006870022801D185F80180064869780C30F8
:103B900040F82170BDE8F0411420FBF721BDBDE8DD
:103BA000F0810000702600200415014010B5144675
:103BB00002004FF001000CD00846136806A24FF433
:103BC0008071FCF75FF901462046BDE81040FDF723
:103BD00067BD0021216010BD5B253038645D0000A9
:103BE00070B50C4605464FF48E71FFF762FAA18A54
:103BF000A068415CA08A401CA082C5F81C1570BD5D
:103C000030B58FB00024054607949DF81C001C2198
:103C100020F00F00401C20F0F00010308DF81C0048
:103C20009DF81D0020F00F00401C20F0F000103027
:103C30008DF81D009DF81E0020F00600801C8DF8F8
:103C40001E006846FBF747FB9DF80000019440F01A
:103C50001A008DF8000007A8CDE9044003940694EB
:103C600028788DF83A000320ADF838000D949DF8BF
:103C70003400142120F00F00401C20F0F000103020
:103C80008DF834009DF8350020F00F00401C20F026
:103C9000F00010308DF835009DF8360020F0060059
:103CA000801C20F0180040F001008DF8360008A8B4
:103CB000FBF711FB0EA808900DA809900120ADF8A4
:103CC00028003C20ADF82A40ADF82C0068882B1D58
:103CD00008AA6946A2DF0FB030BD1FB500228DF8DB
:103CE00000208DF80810816801918275D0E90012DA
:103CF000684690471FBD000070B5017841B10129A9
:103D000001D0022925D14068BDE87040FCF7F0BC25
:103D1000114C104D20782844FCF7AEFD2078401C53
:103D2000C0B22918207011F8011C0A2902D0E188BC
:103D300088420ED30749227801F52770FDF778F9FC
:103D4000082804D01128F5D008B1FCF7D1FC0020D8
:103D5000207070BD8C270020F82500207CB50178EC
:103D6000244D81B301290BD002292BD18DF80010ED
:103D7000C068691C01900122C81DFEF77BFD2EE082
:103D8000406801781C48FCF7D9FC1B4C012618B18F
:103D90008DF80060019006E0A068E168814205D0DE
:103DA00000208DF80000696868468847A068E168CF
:103DB000081AA188884207D80E490122491CC81D4B
:103DC000FEF758FD7CBD01E0AE70FBE70A480949EB
:103DD0001030FCF798FC30B103208DF800006968C2
:103DE00068468847EEE70349012201F10800FEF723
:103DF0005DFEE7E784260020A82D00202DE9FF477F
:103E00000C4605464FF40071FFF759F901274FF4AE
:103E10000178002618B34FF4927949462846FFF7F7
:103E200043F9E0B149462846FFF743F9C5F808834E
:103E3000A07E00B96F6002208DF80000D5F88004E4
:103E4000C5F880040390E07D8DF80800E0680190DB
:103E5000E6752676D4E900126846904727E00421EB
:103E60002846FFF72CF910B34FF484712846FFF76A
:103E70001BF9E0B121462846FFF7D6FAE07D617EC6
:103E8000884214D1207E38B1617EE268E0752069F5
:103E9000E0602676667607E0A07E00B96F60C5F820
:103EA0000883E675617EE2682046FFF727FB4FF442
:103EB0008E7841462846FFF7F7F888B1A08AA17DA1
:103EC000884204D221462846FFF78AFE08E0414690
:103ED0002846FFF7EEF8A17D11B12046FFF7FDFE61
:103EE0004FF4A27841462846FFF7DEF8002812D0AA
:103EF00041462846FFF7DDF8A07E00B12F60E07D47
:103F0000002808D0E675617EE26804B02046BDE86E
:103F1000F047FFF7F3BABDE8FF872DE9FF410C46F4
:103F20004FF4927705463946FFF7CFF80026C0B127
:103F300039462846FFF7CEF802208DF80000D5F864
:103F40008004C5F880040390D5F83C058DF808007E
:103F5000E0680190E6752676D4E90012684690473D
:103F600024E04FF4887739462846FFF7AEF8E8B1E9
:103F700039462846FFF7AEF8D5F83C05C1B2E07DDA
:103F8000884213D1207E60B1E268D5F8000220F0AB
:103F90002000C5F80002207EE0752069E0602676EA
:103FA00001E0E675E2682046FFF7A8FA4FF4A27731
:103FB00039462846FFF789F868B139462846FFF7A1
:103FC00089F8E07D38B1E675D5F83C05E268C1B204
:103FD0002046FFF793FA4FF4907631462846FFF7D4
:103FE00074F800280FD031462846FFF773F8A07DFB
:103FF000002808D0D5F84C0504B0C1B22046BDE871
:10400000F041FFF76ABEBDE8FF810870000A487002
:104010000220704738B515494888A0F57F42FF3A1D
:1040200023D04A78124C521CD2B24A70237B93425E
:104030000AD3091D75DF002817D0A169002914D003
:1040400001B0BDE83040084700254D70217C29B102
:104050003B2176DF10B1A16901B188476169002970
:1040600003D08DF800506846884738BD48260020A8
:10407000B02B00200A494A788B78521CD2B2934266
:1040800000D100220B78934201D1002070470270CA
:10409000487800EB400001EBC000001D70470000B5
:1040A0009C2C00202DE9FC411646DDE90854CDE9A1
:1040B00000541F468046022200F00CF8002807D169
:1040C000CDE900543B4610223146404600F002F84C
:1040D000BDE8FC812DE9FC5F0026DDE90C4B99462B
:1040E00092468E4680462788354630E0D8F8040050
:1040F000002200EB850069460068019001A864DF9A
:10410000002830D19DF8000050451FD10EB100218C
:1041100000E00221228808441118594522D846B9E6
:10412000521C90B2208009F800E02088401C2080BA
:104130000126218801A801EB0902694664DF0028F5
:1041400011D120889DF80010084420806D1CB8F81B
:104150000000A842CADC56B12088C01B401E80B2B5
:10416000FF2802D90C20BDE8FC9F09F807000020B9
:10417000F9E70000002002010030004003000100C8
:10418000FFFFFFFF07FF00000000004000000000ED
:104190000800000006000000050000000700000005
:1041A0000000000000E0D701111213140D0E0F10D3
:1041B000702A0020902A0020BC2A00200D00030055
:1041C000111302000E000300111302000F00030080
:1041D000111302001000030011130200902B0020A5
:1041E000770A000000000000770A000000000000CD
:1041F0007ADA0000000000009ECADC240EE5A9E087
:1042000093F3A3B50000406E000000507C2C00200A
:1042100003000000FFFFFFFFFFFFFFFFFFFFFFFFA7
:10422000FFFFFFFF00000000000000000000D601BB
:1042300007010000004040404040404040404141B4
:10424000414141404040404040404040404040406B
:104250004040404040050202020202020202020205
:104260000202020202202020202020202020200202
:104270000202020202029090909090901010101092
:10428000101010101010101010101010101010102E
:1042900002020202020288888888888808080808C2
:1042A000080808080808080808080808080808088E
:1042B0000202020240000000354202006E72665F98
:1042C000626C655F676174743A4552524F523A733B
:1042D000645F626C655F67617474635F657863686F
:1042E000616E67655F6D74755F7265717565737416
:1042F00028292072657475726E656420756E657804
:104300007065637465642076616C7565203078250E
:10431000782E0D0A000000006E72665F626C655FA9
:10432000676174743A4552524F523A73645F626CDB
:10433000655F67617474735F65786368616E6765F4
:104340005F6D74755F7265706C7928292072657471
:1043500075726E656420756E6578706563746564EA
:104360002076616C756520307825782E0D0A000066
:104370006E72665F626C655F676174743A45525233
:104380004F523A73645F626C655F6761705F64612E
:1043900074615F6C656E6774685F75706461746585
:1043A000282920287265706C7929207265747572CD
:1043B0006E656420756E65787065637465642076DB
:1043C000616C756520307825782E0D0A000000009C
:1043D0006E72665F626C655F676174743A455252D3
:1043E0004F523A73645F626C655F6761705F6461CE
:1043F00074615F6C656E6774685F75706461746525
:10440000282920287265717565737429206F6E20C4
:10441000636F6E6E656374696F6E203078257820E7
:1044200072657475726E656420756E65787065630B
:104430007465642076616C756520307825782E0D62
:104440000A00000064440200F8250020BC000000BF
:10445000ACFE010020450200B42600202C2A0000FA
:10446000BCFE010000000000FFFF1400000000007F
:104470000000010002000000000000000000000039
:10448000000000000000000000000000000000002C
:10449000000000000000000000000000000000001C
:1044A000000000000000000000000000000000000C
:1044B00000000000000000000000000000000000FC
:1044C00000000000000000000000000000000000EC
:1044D00000000000000000000000000000000000DC
:1044E00000000000000000000000000000000000CC
:1044F000000000000000000000200040000000005C
:1045000000000000000000000000000000000000AB
:104510000000000000000000000000000090D00338
:040000050001F20103
:00000001FF
